{
  "contractName": "Election",
  "abi": [
    {
      "inputs": [],
      "payable": false,
      "stateMutability": "nonpayable",
      "type": "constructor"
    },
    {
      "constant": true,
      "inputs": [],
      "name": "adminAddress",
      "outputs": [
        {
          "internalType": "address",
          "name": "",
          "type": "address"
        }
      ],
      "payable": false,
      "stateMutability": "view",
      "type": "function"
    },
    {
      "constant": true,
      "inputs": [
        {
          "internalType": "uint256",
          "name": "",
          "type": "uint256"
        }
      ],
      "name": "candidates",
      "outputs": [
        {
          "internalType": "uint256",
          "name": "id",
          "type": "uint256"
        },
        {
          "internalType": "string",
          "name": "name",
          "type": "string"
        },
        {
          "internalType": "uint256",
          "name": "voteCount",
          "type": "uint256"
        }
      ],
      "payable": false,
      "stateMutability": "view",
      "type": "function"
    },
    {
      "constant": true,
      "inputs": [],
      "name": "candidatesCount",
      "outputs": [
        {
          "internalType": "uint256",
          "name": "",
          "type": "uint256"
        }
      ],
      "payable": false,
      "stateMutability": "view",
      "type": "function"
    },
    {
      "constant": true,
      "inputs": [],
      "name": "electionStarted",
      "outputs": [
        {
          "internalType": "bool",
          "name": "",
          "type": "bool"
        }
      ],
      "payable": false,
      "stateMutability": "view",
      "type": "function"
    },
    {
      "constant": true,
      "inputs": [
        {
          "internalType": "address",
          "name": "",
          "type": "address"
        }
      ],
      "name": "voters",
      "outputs": [
        {
          "internalType": "bool",
          "name": "",
          "type": "bool"
        }
      ],
      "payable": false,
      "stateMutability": "view",
      "type": "function"
    },
    {
      "constant": false,
      "inputs": [
        {
          "internalType": "string[]",
          "name": "_candidateNames",
          "type": "string[]"
        }
      ],
      "name": "startElection",
      "outputs": [],
      "payable": false,
      "stateMutability": "nonpayable",
      "type": "function"
    },
    {
      "constant": false,
      "inputs": [
        {
          "internalType": "uint256",
          "name": "_candidateId",
          "type": "uint256"
        }
      ],
      "name": "vote",
      "outputs": [],
      "payable": false,
      "stateMutability": "nonpayable",
      "type": "function"
    },
    {
      "constant": true,
      "inputs": [],
      "name": "getElectionStatus",
      "outputs": [
        {
          "internalType": "bool",
          "name": "",
          "type": "bool"
        }
      ],
      "payable": false,
      "stateMutability": "view",
      "type": "function"
    },
    {
      "constant": true,
      "inputs": [],
      "name": "getElectionResults",
      "outputs": [
        {
          "internalType": "string[]",
          "name": "",
          "type": "string[]"
        },
        {
          "internalType": "uint256[]",
          "name": "",
          "type": "uint256[]"
        }
      ],
      "payable": false,
      "stateMutability": "view",
      "type": "function"
    },
    {
      "constant": false,
      "inputs": [],
      "name": "endElection",
      "outputs": [],
      "payable": false,
      "stateMutability": "nonpayable",
      "type": "function"
    },
    {
      "constant": true,
      "inputs": [],
      "name": "getCandidateIdsAndNames",
      "outputs": [
        {
          "internalType": "uint256[]",
          "name": "",
          "type": "uint256[]"
        },
        {
          "internalType": "string[]",
          "name": "",
          "type": "string[]"
        }
      ],
      "payable": false,
      "stateMutability": "view",
      "type": "function"
    },
    {
      "constant": false,
      "inputs": [],
      "name": "clearCandidates",
      "outputs": [],
      "payable": false,
      "stateMutability": "nonpayable",
      "type": "function"
    }
  ],
  "bytecode": "0x608060405260038054610100600160a81b031916745f7d25c7094ea9cb8ec896a11e3491a3bd4a4db70017905534801561003857600080fd5b50610f3e806100486000396000f3fe608060405234801561001057600080fd5b50600436106100b45760003560e01c806359f784681161007157806359f784681461014c5780635c179f7e14610154578063a3ec138d1461015c578063d5346da11461016f578063eccf1f1014610177578063fc6f94681461018d576100b4565b80630121b93f146100b9578063122902a6146100ce5780631a67a7f2146100ec5780631f967886146101025780632d35a8a2146101155780633477ee2e1461012a575b600080fd5b6100cc6100c7366004610a7f565b6101a2565b005b6100d661025c565b6040516100e39190610d5e565b60405180910390f35b6100f4610266565b6040516100e3929190610d39565b6100cc610110366004610a4a565b6103f9565b61011d6104eb565b6040516100e39190610dbc565b61013d610138366004610a7f565b6104f1565b6040516100e393929190610dca565b6100cc61059d565b6100cc6105fa565b6100d661016a366004610a24565b610693565b6100d66106a8565b61017f6106b1565b6040516100e3929190610d14565b610195610839565b6040516100e39190610d06565b60035460ff166101cd5760405162461bcd60e51b81526004016101c490610d6c565b60405180910390fd5b6000811180156101df57506002548111155b6101fb5760405162461bcd60e51b81526004016101c490610dac565b3360009081526020819052604090205460ff161561022b5760405162461bcd60e51b81526004016101c490610d9c565b600090815260016020818152604080842060020180548401905533845290839052909120805460ff19169091179055565b60035460ff165b90565b6060806060600254604051908082528060200260200182016040528015610297578160200160208202803883390190505b50905060606002546040519080825280602002602001820160405280156102d257816020015b60608152602001906001900390816102bd5790505b50905060015b60025481116103ef576102e961084d565b60008281526001602081815260409283902083516060810185528154815281840180548651600296821615610100026000190190911695909504601f810185900485028601850190965285855290949193858401939092908301828280156103925780601f1061036757610100808354040283529160200191610392565b820191906000526020600020905b81548152906001019060200180831161037557829003601f168201915b50505050508152602001600282015481525050905080600001518460018403815181106103bb57fe5b60200260200101818152505080602001518360018403815181106103db57fe5b6020908102919091010152506001016102d8565b5090925090509091565b60035461010090046001600160a01b031633146104285760405162461bcd60e51b81526004016101c490610d7c565b60035460ff161561044b5760405162461bcd60e51b81526004016101c490610d8c565b60005b81518110156104da57600280546001019081905560408051606081019091529081528251602082019084908490811061048357fe5b602090810291909101810151825260009181018290526002548252600180825260409092208351815583820151805191936104c4939085019291019061086e565b506040919091015160029091015560010161044e565b50506003805460ff19166001179055565b60025481565b600160208181526000928352604092839020805481840180548651600296821615610100026000190190911695909504601f8101859004850286018501909652858552909491939290919083018282801561058d5780601f106105625761010080835404028352916020019161058d565b820191906000526020600020905b81548152906001019060200180831161057057829003601f168201915b5050505050908060020154905083565b60035461010090046001600160a01b031633146105cc5760405162461bcd60e51b81526004016101c490610d7c565b60035460ff166105ee5760405162461bcd60e51b81526004016101c490610d6c565b6003805460ff19169055565b60035461010090046001600160a01b031633146106295760405162461bcd60e51b81526004016101c490610d7c565b60035460ff161561064c5760405162461bcd60e51b81526004016101c490610d8c565b60015b600254811161068b57600081815260016020819052604082208281559190610679908301826108ec565b5060006002919091015560010161064f565b506000600255565b60006020819052908152604090205460ff1681565b60035460ff1681565b60608060606002546040519080825280602002602001820160405280156106ec57816020015b60608152602001906001900390816106d75790505b509050606060025460405190808252806020026020018201604052801561071d578160200160208202803883390190505b50905060015b60025481116103ef5761073461084d565b60008281526001602081815260409283902083516060810185528154815281840180548651600296821615610100026000190190911695909504601f810185900485028601850190965285855290949193858401939092908301828280156107dd5780601f106107b2576101008083540402835291602001916107dd565b820191906000526020600020905b8154815290600101906020018083116107c057829003601f168201915b505050505081526020016002820154815250509050806020015184600184038151811061080657fe5b6020026020010181905250806040015183600184038151811061082557fe5b602090810291909101015250600101610723565b60035461010090046001600160a01b031681565b60405180606001604052806000815260200160608152602001600081525090565b828054600181600116156101000203166002900490600052602060002090601f016020900481019282601f106108af57805160ff19168380011785556108dc565b828001600101855582156108dc579182015b828111156108dc5782518255916020019190600101906108c1565b506108e8929150610933565b5090565b50805460018160011615610100020316600290046000825580601f106109125750610930565b601f0160209004906000526020600020908101906109309190610933565b50565b61026391905b808211156108e85760008155600101610939565b803561095881610ede565b92915050565b600082601f83011261096f57600080fd5b813561098261097d82610e20565b610df9565b81815260209384019390925082018360005b838110156109c057813586016109aa88826109ca565b8452506020928301929190910190600101610994565b5050505092915050565b600082601f8301126109db57600080fd5b81356109e961097d82610e41565b91508082526020830160208301858383011115610a0557600080fd5b610a10838284610e98565b50505092915050565b803561095881610ef2565b600060208284031215610a3657600080fd5b6000610a42848461094d565b949350505050565b600060208284031215610a5c57600080fd5b813567ffffffffffffffff811115610a7357600080fd5b610a428482850161095e565b600060208284031215610a9157600080fd5b6000610a428484610a19565b6000610aa98383610ba3565b9392505050565b6000610abc8383610cfd565b505060200190565b610acd81610e7c565b82525050565b6000610ade82610e6f565b610ae88185610e73565b935083602082028501610afa85610e69565b8060005b85811015610b345784840389528151610b178582610a9d565b9450610b2283610e69565b60209a909a0199925050600101610afe565b5091979650505050505050565b6000610b4c82610e6f565b610b568185610e73565b9350610b6183610e69565b8060005b83811015610b8f578151610b798882610ab0565b9750610b8483610e69565b925050600101610b65565b509495945050505050565b610acd81610e87565b6000610bae82610e6f565b610bb88185610e73565b9350610bc8818560208601610ea4565b610bd181610ed4565b9093019392505050565b6000610be8601883610e73565b7f456c656374696f6e20686173206e6f7420737461727465640000000000000000815260200192915050565b6000610c21602583610e73565b7f4f6e6c792061646d696e2063616e20706572666f726d2074686973206f70657281526430ba34b7b760d91b602082015260400192915050565b6000610c68601c83610e73565b7f456c656374696f6e2068617320616c7265616479207374617274656400000000815260200192915050565b6000610ca1601783610e73565b7f566f7465722068617320616c726561647920766f746564000000000000000000815260200192915050565b6000610cda601483610e73565b73125b9d985b1a590818d85b991a59185d1948125160621b815260200192915050565b610acd81610263565b602081016109588284610ac4565b60408082528101610d258185610ad3565b90508181036020830152610a428184610b41565b60408082528101610d4a8185610b41565b90508181036020830152610a428184610ad3565b602081016109588284610b9a565b6020808252810161095881610bdb565b6020808252810161095881610c14565b6020808252810161095881610c5b565b6020808252810161095881610c94565b6020808252810161095881610ccd565b602081016109588284610cfd565b60608101610dd88286610cfd565b8181036020830152610dea8185610ba3565b9050610a426040830184610cfd565b60405181810167ffffffffffffffff81118282101715610e1857600080fd5b604052919050565b600067ffffffffffffffff821115610e3757600080fd5b5060209081020190565b600067ffffffffffffffff821115610e5857600080fd5b506020601f91909101601f19160190565b60200190565b5190565b90815260200190565b600061095882610e8c565b151590565b6001600160a01b031690565b82818337506000910152565b60005b83811015610ebf578181015183820152602001610ea7565b83811115610ece576000848401525b50505050565b601f01601f191690565b610ee781610e7c565b811461093057600080fd5b610ee78161026356fea365627a7a723158206ceabac6deef29dc80a752bcd7d08c95c8bbc3b36cf9230f2de5e1a2dab799e16c6578706572696d656e74616cf564736f6c63430005100040",
  "source": "pragma solidity 0.5.16;\n\npragma experimental ABIEncoderV2;\n\ncontract Election {\n    // Model a Candidate\n    struct Candidate {\n        uint256 id;\n        string name;\n        uint256 voteCount;\n    }\n\n    // Store accounts that have voted\n    mapping(address => bool) public voters;\n\n    // Store Candidates\n    // Fetch Candidate\n    mapping(uint256 => Candidate) public candidates;\n\n    // Store Candidates Count\n    uint256 public candidatesCount;\n\n    // Election status\n    bool public electionStarted;\n\n    // Admin address\n    address public adminAddress = 0x5F7d25C7094EA9Cb8EC896a11e3491a3bD4A4Db7; // Replace with the desired admin address\n\n    // Modifier: Only admin can perform certain operations\n    modifier onlyAdmin() {\n        require(msg.sender == adminAddress, \"Only admin can perform this operation\");\n        _;\n    }\n\n    // Constructor\n    constructor() public {\n    }\n\n    // Start the election\n    function startElection(string[] memory _candidateNames) public onlyAdmin {\n        require(!electionStarted, \"Election has already started\");\n\n        for (uint256 i = 0; i < _candidateNames.length; i++) {\n            candidatesCount++;\n            candidates[candidatesCount] = Candidate(candidatesCount, _candidateNames[i], 0);\n        }\n\n        electionStarted = true;\n    }\n\n    // Vote for a candidate\n    function vote(uint256 _candidateId) public {\n        require(electionStarted, \"Election has not started\");\n        require(_candidateId > 0 && _candidateId <= candidatesCount, \"Invalid candidate ID\");\n        require(!voters[msg.sender], \"Voter has already voted\");\n\n        candidates[_candidateId].voteCount++;\n        voters[msg.sender] = true;\n    }\n\n    // Get the current election status\n    function getElectionStatus() public view returns (bool) {\n        return electionStarted;\n    }\n\n    // Get the election results\n    function getElectionResults() public view returns (string[] memory, uint256[] memory) {\n        string[] memory candidateNames = new string[](candidatesCount);\n        uint256[] memory voteCounts = new uint256[](candidatesCount);\n\n        for (uint256 i = 1; i <= candidatesCount; i++) {\n            Candidate memory candidate = candidates[i];\n            candidateNames[i - 1] = candidate.name;\n            voteCounts[i - 1] = candidate.voteCount;\n        }\n\n        return (candidateNames, voteCounts);\n    }\n\n    // End the election\n    function endElection() public onlyAdmin {\n        require(electionStarted, \"Election has not started\");\n        electionStarted = false;\n    }\n\n    // Retrieve candidate ID and name\n    function getCandidateIdsAndNames() public view returns (uint256[] memory, string[] memory) {\n        uint256[] memory candidateIds = new uint256[](candidatesCount);\n        string[] memory candidateNames = new string[](candidatesCount);\n\n        for (uint256 i = 1; i <= candidatesCount; i++) {\n            Candidate memory candidate = candidates[i];\n            candidateIds[i - 1] = candidate.id;\n            candidateNames[i - 1] = candidate.name;\n        }\n\n        return (candidateIds, candidateNames);\n    }\n    // Clear all candidate IDs and names\n    function clearCandidates() public onlyAdmin {\n        require(!electionStarted, \"Election has already started\");\n\n        for (uint256 i = 1; i <= candidatesCount; i++) {\n            delete candidates[i];\n        }\n\n        candidatesCount = 0;\n    }\n}\n",
  "sourcePath": "C:\\Users\\Mahek\\OneDrive\\Desktop\\projects\\VoteTrust\\contracts\\Election.sol",
  "compiler": {
    "name": "solc",
    "version": "0.5.16+commit.9c3226ce.Emscripten.clang"
  },
  "schemaVersion": "3.4.16",
  "updatedAt": "2023-12-14T04:23:13.830Z",
  "networkType": "ethereum",
  "devdoc": {
    "methods": {}
  },
  "userdoc": {
    "methods": {}
  }
}